S0030000FC
S123010001060708090A0B0C0D0E0F10111617191B202122232324242525262425252626D4
S12301202727282829292A2A2B2B2C2C2D2D2E2C2F2F303031323334353637393B3E3F40BA
S1230140434446474848494A4C4D4F50535456575858595A5C5D5F60006300640166066762
S12301600868096809690A6A0B6C0D6D0E6E0F6FFF707172737475747576767778777879EF
S123018078797A78797A797A7B7A7B7C7C7D7E7D7E7F7E7F807F80818081818282838485A6
S12301A0858686878889898A8A8B8B8C8C8D8E8D8E8E8F909091919292939495959696977A
S12301C097989899999A9A9B9B9C9C9D9E9F9FA0A000A100A201A402A503A604A705A80631
S12301E0A97FAA80ABFFAC00AD02AE04AF06B0B1B2B0B1B2B1B2B3B2B3B4B4B5B6B5B6B7A7
S1230200B6B7B9B7B8B9B8B9BAB9BABBBABBBCBBBCBDBCBDBEBDBEBFBEBFC0BFC0C1C0C15F
S1230220C1C2C2C3C4C5C5C6C6C7C8C8C9C9CACACBCBCECDCED0D1D1D2D2D3D4D5D5D6D649
S1230240D7D7D8D8D9D9DADADBDBDCDEDFDFE0E000E100E201E402E503E604E705E800E9AF
S12302607FEA80EBFFEE04EF06F0F1F2F1F2F3F2F3F4F4F5F6F5F6F7F6F7F8F7F8F9F8F9BF
S1130280FAF9FAFBFAFBFCFBFCFDFEFF00FF0001A0
S12302A00405052122383A3C3D83848593949D9EA3A4B3B4B5C3C4C5CCCDCED3D4DCDDDDBD
S11302C0DEE3E4ECEDEDEEF3F4F5FCFDFEFDFEFF04
S12302E0181A6162636263646566676B6C6D61FE636202646504676B086D7172737273741A
S11503007576777B7C7D71EF737220747540777B807D94
S9030000FC
