S0030000FC
S12300000001030404050607070808090809090A0A0B0C0D0D0E0E0F0F1012131617181774
S12300201819191A1B1C1D1D1E201F8B20212122222323242425252624252526262727282B
S12300402829292A2A2B2B2C2C2D2D2E2C2F2F30303131323233333434353536363737389E
S1230060393A3B3C3D3D3F40434446474848494A4C4D4F50535456575858595A5C5D5F60FB
S123008061636464656666676868696869696A6A6B6C6D6D6E6E6F6F7070717273747574F3
S12300A0757676777877787978797A78797A797A7B7A7B7C7C7D7E7D7E7F7E7F807F8081E1
S12300C08081818282838384858485858686878889898A8A8B8B8C8C8D8E8DB28E8F9090F3
S12300E09191929293939494959596969797989899999A9A9B9B9C9C9D9D9E9E9F9FA0A0EC
S1230100A1A1A2A2A3A3A4A4A5A5A6A6B6A7A8A9A8A9AAABA9B9BABBAAABABBBACB3ADA09F
S1230120AE9FA0A1AFB1B0B1B2B1B2B3B2B3B4B3B4B5B4B5B6B5B6B7B6B7B9B7B8B9B8B96F
S1230140BAB9BABBBABBBCBBBCBDBCBDBEBDBEBFBEBFC0BFC0C1C0C1C1C2C2C3C3C4C5C4C7
S1230160C5C5C6C6C7C8C8C9C9CACACBCBCCCDCECECFD0D0D1D1D2D2D3D3D4D4D5D5D6D6C4
S1230180D7D7D8D8D9D9DADADBDBDCDCDDDDDEDEDFDFE0E0E1E1E2E2A3E3E4E4E5E5E6E6CB
S12301A0F6E7E8E9E8E9EAEBE9F9FAFBEAEBEBFBECEBEDF3EE9FA0A1EFF1F0F1F2F1F2F347
S12301C0F2F3F4F3F4F5F4F5F6F5F6F7F6F7F8F7F8F9F8F9FAF9FAFBFAFBFCFBFCFDFCFD21
S12301E0FEFDFEFFFEFF00FF000110212223102223241023242510242526102526A71024E6
S123020025261025262710262728102728291028292A10292A2B102A2B2C102B2C2D102C86
S12302202D2E102D2E2F102E2F30102F3031103F10838485108C8D8E108E8F9010939410E2
S12302409C9D109E9F109FA010A3A410ACB310AE9FA0A110AFB110B3B4B510BCBDBE10BEB0
S1230260BFC010BFC0C110CECFD010DEDF10DFE010EE9FA0A110EFF110FEFF1010FF000197
S1230280113F11838485118C8D8E119394119C9D11A39F11A411AC9F11AD11B3B4B511BC17
S10502A0BDBEDD
S9030000FC
