:20000000020304050222033302440255026602770288029902E002F002AA02CC0300032061
:2000200003400360038003A003C003E004050444048804CC05060544058805CC0607064498
:20004000068806CC07080744080909AB0ABC0BCD1011111212131314141515161617171843
:200060001819191A1A1B1B1C1C1D1D1E1E1F1F20202122232425262728292A2B2C2D2E2F48
:200080003031343538393C3D456789AB56786789789ABCDE89ABCDEF01239ABCDEF0ABCDB2
:0E00A000EF01BCDECDEF0123DEF0EF01F01228
:0800C00000880099018801CCC1
:2000E000001C43EF0123001D400B00294D74002A4AEF0123CDEF00B34567016122230105ED
:140100000381038203840C0901EF01230C0A00000C0B03D230
:00000001FF
