S0030000FC
S1130000000200040005000600080009000A000BB5
S1130010000C000D000E001200180019001A001B3D
S1130020002200280029002A002B100020002001B3
S11300302002200420052006200720082009200A89
S1130040200B200C200D200E200F30003002300336
S11300503004300630073008300A300B300C300ED4
S1130060300F400040014002400340044005400678
S1130070400740084009400A400B400E400F401121
S11300804012401340154016401740184019401ABA
S1130090401B401E40204021402240234024402554
S11300A04026402740284029402A402B402E50001B
S11300B06000600160026003600460056006600720
S11300C060086009600A600B600C600D600E600FD0
S11300D070008000810084008500880089008B0006
S11300E09000A000B000C000C100C200C300C40062
S11300F0C500C600C700C800C900CA00CB00CC00B8
S10D0100CD00CE00CF00D000E000D7
S9030000FC
