S0030000FC
S2241000000001020506060708090A0A0D0E0F0E0F10101111121516161718191A1B1D1E1FD8
S2241000201E1F20202122212224252526262728292A2A2C3D2E2D2E2F2E2F3030313132357B
S22410004036363738393A3B3D3E3F3E3F404041424546464748494A4A4C4D4E4D4E4F4E4F1D
S22410006050505151525556565758595A5B5D5E5F5E5F606061626566666768696A6A6C6DA9
S2241000806E6D6E6F6E6F70707171727576767778797A7B7D7E7F7E7F808182848585868630
S2241000A087888A8C8D8E8D8E8F8E8F909091919294959596969798999A9B9A9D9E9FA0A1B4
S2241000C0A1A2A2A3A4A5A5A6A6A7A8A9AAAAACADAEADAEAFAEAFB0B0B1B1B2B4B5B5B6B691
S2241000E0B7B8B9BABBBABCBDBEBDBEBFBEBFC0C0C1C1C2C4C5C5C6C6C7C8C9CACACCCDCEB5
S224100100CDCECFCECFD0D0D1D1D2D5D6D6D7D8D9DADBDDDEDFDEDFE0E0E1E1E2E4E5E5E6A2
S224100120E6E7E8E9EAEAECEDEEEDEEEFEEEFF0F0F1F1F2F5F6F6F7F8F9FAFBFDFEFFFEFF61
S20510014000A9
S22410016004050C0D0E121314151A1C1D1E323334353A3C3D3E52535A6465727374757A7C30
S21A1001807D7E8081898A92939C9D9E9E9FA0B2B3D2D3DAF2F3FAA9
S2061001A0CBDBA2
S2241001C00203030407080B0F101112131417181B1F20212222232425232427282B2F3031D0
S2241001E032333437383B3F404142434444454647484B4F505152535454555657585B5C5DCA
S2241002005E5F5F606162626364636467686B6F707172737477787B7F80818282807E8384C4
S22410022087888B8F909192939497989B9FA0A1A2A3A4A7A8ABAFB0B1B2B3B4B7B8BBBFC047
S224100240C1C2C2C3C3C4C7C8CFD0D1D2D3D4D4D5D7D8DCDDDEDFE0E1E2E2E3E3E4E7E8EBCB
S217100260EFF0F1F2F3F4F4F5F6F7F8FBFCFDFEFF0001020B
S2242000000001020506060708090A0A0D0E0F0E0F10101111121516161718191A1B1D1E1FC8
S2242000201E1F20202122212224252526262728292A2A2C3D2E2D2E2F2E2F3030313132356B
S22420004036363738393A3B3D3E3F3E3F404041424546464748494A4A4C4D4E4D4E4F4E4F0D
S22420006050505151525556565758595A5B5D5E5F5E5F606061626566666768696A6A6C6D99
S2242000806E6D6E6F6E6F70707171727576767778797A7B7D7E7F7E7F808182848585868620
S2242000A087888A8C8D8E8D8E8F8E8F909091919294959596969798999A9B9A9D9E9FA0A1A4
S2242000C000A1A2A2A300A4A5A5A6A6A7A8A9AAAAACADAEADAEAFAEAFB0B0B1B1B2B4B5B5ED
S2242000E0B6B6B7B8B9BABBBABCBDBEBDBEBFBEBFC0C0C100C1C2C4C5C5C6C6C7C8C9CACAA0
S224200100CCCDCECDCECFCECFD0D0D1D1D2D5D6D6D7D8D9DADBDDDEDFDEDFE0E0E100E1E2BF
S224200120E4E5E5E6E6E7E8E9EAEAECEDEEEDEEEFEEEFF0F0F1F1F2F5F6F6F7F8F9FAFBFDB7
S209200140FEFFFEFF009B
S22420016004050C0D0E121314151A1C1D1E323334353A3C3D3E52535A6465727374757A7C20
S21A2001807D7E8081898A92939C9D9E9E9FA0B2B3D2D3DAF2F3FA99
S2062001A0CBDB92
S2242001C00203030407080B0F101112131417181B1F20212222232425232427282B2F3031C0
S2242001E032333437383B3F404142434444454647484B4F505152535454555657585B5C5DBA
S2242002005E5F5F606162626364636467686B6F707172737477787B7F80818282807E8384B4
S22420022087888B8F909192939497989B9FA0A1A2A3A4A7A8ABAFB0B1B2B3B4B7B8BBBFC037
S224200240C1C2C2C3C3C4C7C8CFD0D1D2D3D4D4D5D7D8DCDDDEDFE0E1E2E2E3E3E4E7E8EBBB
S217200260EFF0F1F2F3F4F4F5F6F7F8FBFCFDFEFF000102FB
S2243000000001020506060708090A000A0D0E0F0E0F10101111121516161718191A1B1D1ED7
S2243000201F1E1F20202122212224252526262728292A002A2C3D2E2D2E2F2E2F30303131A3
S224300040323536363738393A3B3D3E3F3E3F404041424546464748494A004A4C4D4E4D4E82
S2243000604F4E4F50505151525556565758595A5B5D5E5F5E5F606061626566666768696AE0
S224300080006A6C6D6E6D6E6F6E6F70707171727576767778797A7B7D7E7F7E7F80818284E3
S2243000A08585868687888A8C8D8E8D8E8F8E8F909091919294959596969798999A9B9A9DFC
S2243000C09E9FA0A1A1A2A2A3A4A5A5A6A6A7A8A9AA00AAACADAEADAEAFAEAFB0B0B1B1B27D
S2243000E0B4B5B5B6B6B7B8B9BABBBABCBDBEBDBEBFBEBFC0C0C1C1C2C4C5C5C6C6C7C8C906
S224300100CA00CACCCDCECDCECFCECFD0D0D1D1D2D5D6D6D7D8D9DADBDDDEDFDEDFE0E0E1DE
S224300120E1E2E4E5E5E6E6E7E8E9EA00EAECEDEEEDEEEFEEEFF0F0F1F1F2F5F6F6F7F8F9D6
S20C300140FAFBFDFEFFFEFF0096
S22430016004050C0D0E121314151A1C1D1E323334353A3C3D3E52535A6465727374757A7C10
S21B3001807D7E8081898A0092939C9D9E9E9FA0B2B3D2D3DAF2F3FA88
S2063001A0CBDB82
S2243001C00203030407080B0F101112131417181B1F20212222232425232427282B2F3031B0
S2243001E032333437383B3F404142434444454647484B4F505152535454555657585B5C5DAA
S2243002005E5F5F606162626364636467686B6F707172737477787B7F80818282807E8384A4
S22430022087888B8F909192939497989B9FA0A1A2A3A4A7A8ABAFB0B1B2B3B4B7B8BBBFC027
S224300240C1C2C2C3C3C4C7C8CFD0D1D2D3D4D4D5D7D8DCDDDEDFE0E1E2E2E3E3E4E7E8EBAB
S217300260EFF0F1F2F3F4F4F5F6F7F8FBFCFDFEFF000102EB
S2244000000001020506060708090A000A0D0E0F0E0F10101111121516161718191A1B1D1EC7
S2244000201F1E1F20202122212224252526262728292A002A2C3D2E2D2E2F2E2F3030313193
S224400040323536363738393A3B3D3E3F3E3F404041424546464748494A004A4C4D4E4D4E72
S2244000604F4E4F50505151525556565758595A5B5D5E5F5E5F606061626566666768696AD0
S224400080006A6C6D6E6D6E6F6E6F70707171727576767778797A7B7D7E7F7E7F80818284D3
S2244000A08585868687888A8C8D8E8D8E8F8E8F909091919294959596969798999A9B9A9DEC
S2244000C09E9FA0A100A1A2A2A300A4A5A5A6A6A7A8A9AA00AAACADAEADAEAFAEAFB0B0B1D0
S2244000E0B1B2B4B5B5B6B6B7B8B9BABBBABCBDBEBDBEBFBEBFC0C0C100C1C2C4C5C5C6C6EB
S224400100C7C8C9CA00CACCCDCECDCECFCECFD0D0D1D1D2D5D6D6D7D8D9DADBDDDEDFDEDF17
S224400120E0E0E100E1E2E4E5E5E6E6E7E8E9EA00EAECEDEEEDEEEFEEEFF0F0F1F1F2F5F603
S210400140F6F7F8F9FAFBFDFEFFFEFF00A4
S22440016004050C0D0E121314151A1C1D1E323334353A3C3D3E52535A6465727374757A7C00
S21B4001807D7E8081898A0092939C9D9E9E9FA0B2B3D2D3DAF2F3FA78
S2064001A0CBDB72
S2244001C00203030407080B0F101112131417181B1F20212222232425232427282B2F3031A0
S2244001E032333437383B3F404142434444454647484B4F505152535454555657585B5C5D9A
S2244002005E5F5F606162626364636467686B6F707172737477787B7F80818282807E838494
S22440022087888B8F909192939497989B9FA0A1A2A3A4A7A8ABAFB0B1B2B3B4B7B8BBBFC017
S224400240C1C2C2C3C3C4C7C8CFD0D1D2D3D4D4D5D7D8DCDDDEDFE0E1E2E2E3E3E4E7E8EB9B
S217400260EFF0F1F2F3F4F4F5F6F7F8FBFCFDFEFF000102DB
S804000000FB
