S0030000FC
S1130000004041014041024041004F4E01C102C144
S113001001004101810110104101911001201000E3
S11300204101A110000130000100004101504101D3
S1130030D101604101E101F11201F2123401F31224
S113004034567801711241017212344101F51201E2
S1130050F6123401F700123456017512410176127A
S1130060344101781041017820410178304101790F
S113007010104101F92010017C420041017C101252
S11300801041017D900141017E50000041017E50EC
S1130090201041044041054041064041050041050E
S11300A0C105F11005761234410840410940410A66
S11300B0404109004109C109F11009721234410C8F
S11300C040410D40410E40410D40010D40610D4045
S11300D0510D00410D50410D60410DC10D810DF1D7
S11300E0100DF212340DF3123456780DF612340D4D
S11300F04076123410104011104012104010F0409D
S1130100117F411110001440154016401441150090
S11301101810401910401A104018F0401910001C13
S113012010401D10401E10401DF0412001210122ED
S113013001217F240125012601280129012A012CFE
S1130140012D012E013005310532053117340535F5
S1130150053605380539053A053C053D053E05409B
S1130160404141404142404140C1444041454041F9
S11301704840414940414C40414D4041504041512B
S1130180404152404150C1510041544041554041C9
S1130190564041584059405A4058005910105C414B
S11301A05D415E415D016002416022416042416007
S11301B0624160824160A24160C24160E241618269
S11301C0416282416182006403416423416443418A
S11301D064634164834164A34164C34164E341654E
S11301E08541668541649F416C03016C23016C4326
S11301F0016C63016D0F016E1F016C404079400179
S11302007D004180404181404182404180C181F173
S1130210FF81004183404183C18440418540418640
S1130220404185C187404187C18840418940418A16
S1130230404189C18C408D408E408C00904091405B
S113024092409000980099000098089B009B20120F
S1130250349B0F9C409D409E409C00A000A1000048
S1130260A008A40200A40300A40400A40500A4069A
S113027000A40700A40C00A40D00A40E00A40F0009
S1130280A40A00A40B00A40800A40900A40000A46C
S11302900100A5020000A800A90000A808AB00AB5B
S11302A0201234AB761234AC00AD00AE00AC07AF14
S11302B040AF00B000B10000B008B301B31EB810E5
S11302C0B90200BBBC00BD00BE00BC07BF81BFA01B
S11302D01234D00010D107FF00D20F00010000D368
S11302E000D307E04001E20041EB40EB41E400E4CD
S11302F001E40FEE004041EE104041EE404041EE7B
S1130300504041EF004041EF404041F0F1F200F233
S113031005F20FF4F5F82040F8A040F84040F92029
S113032040F9A040FA2040FAA040FB4040FB0140C5
S1130330FB4000FC4040FC0140FC4000FDFEFF701F
S113034004000F710400257264FFFF7504000F762A
S11303505401E1E8E9000F94220195553494020117
S113036095453494A2013795C64576D4010203D548
S1130370014405D6010243D7012345B41700B5262D
S11303800000B63E00000000B70600B70701F307FF
S1130390F309680201682201684201686201690286
S10B03A0016A0201680E10104D
S9030000FC
